{
  "contractName": "SimpleBank",
  "abi": [
    {
      "inputs": [],
      "payable": false,
      "stateMutability": "nonpayable",
      "type": "constructor"
    },
    {
      "payable": false,
      "stateMutability": "nonpayable",
      "type": "fallback"
    },
    {
      "anonymous": false,
      "inputs": [],
      "name": "LogEnrolled",
      "type": "event"
    },
    {
      "anonymous": false,
      "inputs": [],
      "name": "LogDepositMade",
      "type": "event"
    },
    {
      "constant": false,
      "inputs": [],
      "name": "balance",
      "outputs": [
        {
          "name": "",
          "type": "uint256"
        }
      ],
      "payable": false,
      "stateMutability": "nonpayable",
      "type": "function"
    },
    {
      "constant": false,
      "inputs": [],
      "name": "enroll",
      "outputs": [
        {
          "name": "",
          "type": "bool"
        }
      ],
      "payable": false,
      "stateMutability": "nonpayable",
      "type": "function"
    },
    {
      "constant": false,
      "inputs": [],
      "name": "deposit",
      "outputs": [
        {
          "name": "",
          "type": "uint256"
        }
      ],
      "payable": false,
      "stateMutability": "nonpayable",
      "type": "function"
    },
    {
      "constant": false,
      "inputs": [
        {
          "name": "withdrawAmount",
          "type": "uint256"
        }
      ],
      "name": "withdraw",
      "outputs": [
        {
          "name": "",
          "type": "uint256"
        }
      ],
      "payable": false,
      "stateMutability": "nonpayable",
      "type": "function"
    }
  ],
  "bytecode": "0x608060405234801561001057600080fd5b5061017c806100206000396000f300608060405260043610610062576000357c0100000000000000000000000000000000000000000000000000000000900463ffffffff1680632e1a7d4d14610074578063b69ef8a8146100b5578063d0e30db0146100e0578063e65f2a7e1461010b575b34801561006e57600080fd5b50600080fd5b34801561008057600080fd5b5061009f6004803603810190808035906020019092919050505061013a565b6040518082815260200191505060405180910390f35b3480156100c157600080fd5b506100ca610141565b6040518082815260200191505060405180910390f35b3480156100ec57600080fd5b506100f5610146565b6040518082815260200191505060405180910390f35b34801561011757600080fd5b5061012061014b565b604051808215151515815260200191505060405180910390f35b6000919050565b600090565b600090565b6000905600a165627a7a723058207bc2f111c3369ad8ffad69d621660ab0652858b55d86bec32816bfe6d04974cf0029",
  "source": "pragma solidity ^0.4.21;\ncontract SimpleBank {\n\n    //\n    // State variables\n    //\n    \n    /* Fill in the keyword. Hint: We want to protect our users balance from other contracts*/\n    mapping (address => uint) balances;\n    \n    /* Fill in the keyword. We want to create a getter function and allow contracts to be able to see if a user is enrolled.  */\n    mapping (address => bool) enrolled;\n\n    /* Let's make sure everyone knows who owns the bank. Use the appropriate keyword for this*/\n    address owner;\n    \n    //\n    // Events - publicize actions to external listeners\n    //\n    \n    /* Add an argument for this event, an accountAddress */\n    event LogEnrolled();\n\n    /* Add 2 arguments for this event, an accountAddress and an amount */\n    event LogDepositMade();\n\n    /* Create an event called LogWithdrawal */\n    /* Add 3 arguments for this event, an accountAddress, withdrawAmount and a newBalance */\n\n\n    //\n    // Functions\n    //\n\n    /* Use the appropriate global variable to get the sender of the transaction */\n    constructor() {\n        /* Set the owner to the creator of this contract */\n    }\n\n    /// @notice Get balance\n    /// @return The balance of the user\n    // A SPECIAL KEYWORD prevents function from editing state variables;\n    // allows function to run locally/off blockchain\n    function balance() public returns (uint) {\n        /* Get the balance of the sender of this transaction */\n    }\n\n    /// @notice Enroll a customer with the bank\n    /// @return The users enrolled status\n    // Emit the appropriate event\n    function enroll() public returns (bool){\n    }\n\n    /// @notice Deposit ether into bank\n    /// @return The balance of the user after the deposit is made\n    // Add the appropriate keyword so that this function can receive ether\n    // Use the appropriate global variables to get the transaction sender and value\n    // Emit the appropriate event    \n    function deposit() public returns (uint) {\n        /* Add the amount to the user's balance, call the event associated with a deposit,\n          then return the balance of the user */\n    }\n\n    /// @notice Withdraw ether from bank\n    /// @dev This does not return any excess ether sent to it\n    /// @param withdrawAmount amount you want to withdraw\n    /// @return The balance remaining for the user\n    // Emit the appropriate event    \n    function withdraw(uint withdrawAmount) public returns (uint) {\n        /* If the sender's balance is at least the amount they want to withdraw,\n           Subtract the amount from the sender's balance, and try to send that amount of ether\n           to the user attempting to withdraw. \n           return the user's balance.*/\n    }\n\n    // Fallback function - Called if other functions don't match call or\n    // sent ether without data\n    // Typically, called when invalid data is sent\n    // Added so ether sent to this contract is reverted if the contract fails\n    // otherwise, the sender's money is transferred to contract\n    function() {\n        revert();\n    }\n}\n",
  "sourcePath": "/Users/JAB/Documents/Consensys/Exercises/simple-bank-JulianBoralli/contracts/SimpleBank.sol",
  "compiler": {
    "name": "solc",
    "version": "0.4.24+commit.e67f0147.Emscripten.clang"
  },
  "schemaVersion": "2.0.1",
  "updatedAt": "2018-12-04T01:03:59.497Z"
}